S00C0000436F64652E737265639D
S11300000C942A000C94D6030C94FF030C9428043B
S11300100C9447000C9447000C9447000C94470040
S11300200C9447000C9447000C9447000C94470030
S11300300C9447000C9447000C9447000C94470020
S11300400C9447000C9447000C9447000C94470010
S11300500C94470011241FBECFE5D8E0DEBFCDBF0E
S113006010E0A0E6B0E0ECE2FEE002C005900D92E4
S1130070A837B107D9F720E0A8E7B0E001C01D9286
S1130080A538B207E1F70E94F3020C9414070C940C
S1130090000082E08093600008950E9451040E9451
S11300A0C2030E94BE0389E490E00E94CC030E9434
S11300B05F040895CF938EE690E00E94510281E799
S11300C090E00E94510284E790E00E94510285E68C
S11300D090E00E94510288E690E00E9451028BE673
S11300E090E00E94510280918400813008F445C060
S11300F0833090F0833009F040C08BE690E00E949A
S11301003A028EE690E00E943A0268E873E180E0E9
S113011090E00E94660431C085E690E00E943A02B5
S1130120C0E00FC088E690E00E94680281E790E09A
S11301300E94680268EE73E080E090E00E9466042A
S1130140CF5FC53078F385E690E00E94510288E6DF
S113015090E00E94510281E790E00E9468028EE6DE
S113016090E00E943A028BE690E00E943A0268E82E
S113017073E180E090E00E9466048EE690E00E94C5
S11301805102C0E00FC088E690E00E94680281E757
S113019090E00E94680268EE73E080E090E00E94C4
S11301A06604CF5FC53078F388E690E00E94510280
S11301B081E790E00E9451028BE690E00E94510298
S11301C085E690E00E943A0284E790E00E943A02B9
S11301D081E080936000CF910895CF93DF9342C173
S11301E081E08093840084E790E00E943A02C0E0BA
S11301F049C064E670E080E090E00E94660463E831
S113020070E081E690E00E949F0219C063E870E00C
S113021081E690E00E949F028091790090917A009B
S1130220A0917B00B0917C000196A11DB11D80932B
S1130230790090937A00A0937B00B0937C00809126
S11302408300813019F38091790090917A00A09114
S11302507B00B0917C00813D9740A105B10518F069
S113026081E08093600080916000823051F485E6E3
S113027090E00E9451020E945A0081E0809378002D
S113028004C0CF5FC23308F4B4CF809178008823D0
S113029019F010927800E6C01092790010927A005A
S11302A010927B0010927C0084E790E00E9451023F
S11302B082E080938400D0E057C081E790E00E9400
S11302C06802C0E049C064E170E080E090E00E9410
S11302D0660463E870E081E690E00E949F0219C022
S11302E063E870E081E690E00E949F0280917900CB
S11302F090917A00A0917B00B0917C000196A11DA1
S1130300B11D8093790090937A00A0937B00B09301
S11303107C0080918300813019F380917900909161
S11303207A00A0917B00B0917C00813D9740A105AB
S1130330B10518F081E08093600080916000823004
S113034051F485E690E00E9451020E945A0081E037
S11303508093780004C0CF5FC23308F4B4CF809197
S11303607800811104C0DF5FD53008F4A6CF8091F6
S11303707800882319F01092780074C081E790E027
S11303800E9451021092790010927A0010927B0020
S113039010927C0083E0809384008EE690E00E94BB
S11303A03A02C0E049C064E670E080E090E00E9458
S11303B0660463E870E081E690E00E949F0219C041
S11303C063E870E081E690E00E949F0280917900EA
S11303D090917A00A0917B00B0917C000196A11DC0
S11303E0B11D8093790090937A00A0937B00B09321
S11303F07C0080918300813019F380917900909181
S11304007A00A0917B00B0917C00813D9740A105CA
S1130410B10518F081E08093600080916000823023
S113042051F485E690E00E9451020E945A0081E056
S11304308093780004C0CF5FC23308F4B4CF8091B6
S11304407800882319F0109278000CC08EE690E0B2
S11304500E9451021092790010927A0010927B004F
S113046010927C0080916000813009F4B9CEDF9154
S1130470CF910895FC018281882319F0813041F0E5
S11304800EC040E0618180810E94F80280E00895FE
S113049041E0618180810E94F80280E0089581E05A
S11304A00895FC018281882319F0813041F00EC047
S11304B041E0618180810E94F80280E0089540E07B
S11304C0618180810E94F80280E0089581E00895AE
S11304D00F931F93CF93DF931F92CDB7DEB78C0199
S11304E0AE014F5F5F4FFC01618180810E947B03FD
S11304F0F8018281882381F08130D9F489818823AD
S113050019F0813029F015C0C8010E943A0211C0C7
S1130510C8010E9451020DC08981882319F08130DD
S113052029F007C0C8010E94510203C0C8010E94FB
S11305303A020F90DF91CF911F910F910895EF929E
S1130540FF920F931F93CF93DF931F92CDB7DEB724
S11305508C017B01AE014F5F5F4FFC0161818081A3
S11305600E947B03F80183818130A1F48981813069
S113057021F4F701108280E02EC081111FC081E0B8
S1130580F7018083F80182818823D1F08130D1F48E
S113059080E021C0811118C08981813051F4F701B4
S11305A08083F8018281882389F0813089F480E096
S11305B012C081110FC0F70110820DC080E00BC082
S11305C080E009C081E007C081E005C080E003C08D
S11305D081E001C080E00F90DF91CF911F910F91D6
S11305E0FF90EF9008950E944D000E94ED00FDCF12
S11305F0683008F078C04130C1F5813091F028F0BE
S11306008230D9F0833029F170C02BB381E090E0BF
S113061002C0880F991F6A95E2F7822B8BBB80E09A
S1130620089528B381E090E002C0880F991F6A956D
S1130630E2F7822B88BB80E0089525B381E090E047
S113064002C0880F991F6A95E2F7822B85BB80E070
S1130650089522B381E090E002C0880F991F6A9543
S1130660E2F7822B82BB80E00895411140C08130C3
S113067099F028F08230E9F0833041F13AC02BB38D
S113068081E090E002C0880F991F6A95E2F7809597
S113069082238BBB80E0089528B381E090E002C000
S11306A0880F991F6A95E2F78095822388BB80E0C2
S11306B0089525B381E090E002C0880F991F6A95E0
S11306C0E2F78095822385BB80E0089522B381E020
S11306D090E002C0880F991F6A95E2F78095822303
S11306E082BB80E0089581E0089581E0089581E06F
S11306F0089581E0089541155105D1F16830D0F590
S1130700813091F028F08230D9F0833029F134C05F
S113071089B390E002C0959587956A95E2F7817058
S1130720FA01808380E0089586B390E002C0959535
S113073087956A95E2F78170FA01808380E00895D5
S113074083B390E002C0959587956A95E2F781702E
S1130750FA01808380E0089580B390E002C095950B
S113076087956A95E2F78170FA01808380E00895A5
S113077081E0089581E0089581E008958FB780684D
S11307808FBF089585B7826085BF85B78E7F85BF8B
S11307908BB780648BBF0895009731F090938200EB
S11307A08093810080E0089582E008951F920F9263
S11307B00FB60F9211242F933F934F935F936F9330
S11307C07F938F939F93AF93BF93EF93FF93E091A6
S11307D08100F0918200309709F00995FF91EF9123
S11307E0BF91AF919F918F917F916F915F914F9145
S11307F03F912F910F900FBE0F901F9018951F924D
S11308000F920FB60F9211242F933F934F935F9340
S11308106F937F938F939F93AF93BF93EF93FF93C4
S1130820E0917F00F0918000309709F00995FF91E5
S1130830EF91BF91AF919F918F917F916F915F9154
S11308404F913F912F910F900FBE0F901F901895CD
S11308501F920F920FB60F9211242F933F934F9331
S11308605F936F937F938F939F93AF93BF93EF9314
S1130870FF93E0917D00F0917E00309709F0099597
S1130880FF91EF91BF91AF919F918F917F916F9164
S11308905F914F913F912F910F900FBE0F901F903A
S11308A0189587E08ABB87E887BB81E884BB81E031
S11308B081BB1BBA18BA15BA84E082BB089583B70A
S11308C08F7B83BF83B7877F83BF08958F929F9267
S11308D0AF92BF92CF92DF92EF92FF9223B72E7F17
S11308E023BF23B72D7F23BF23B7246023BF0E94D8
S11308F021066B017C012FE632E143E852E40E94B9
S11309007B058823C4F4A70196016FE672E183E8AE
S113091092E40E94F7042FE632E143E85EE30E948A
S113092080050E94F20562BF08B600FEFDCF88B7BD
S1130930816088BF52C02FE632E143E852E4C70128
S1130940B6010E947B05811108C012BE08B600FEE4
S1130950FDCF88B7816088BF40C02FE632E143E80D
S113096052E4C701B6010E9480050E9464050E94FA
S1130970F2054B015C012FE632E143E85EE3C70177
S1130980B6010E9480056B017C01C501B4010E947F
S113099021069B01AC01C701B6010E9480059B01A1
S11309A0AC0160E070E080E893E40E94F7040E94E8
S11309B0F20562BF40E050E0BA010AC008B600FE8A
S11309C0FDCF88B7816088BF4F5F5F4F6F4F7F4F08
S11309D0481559056A057B0588F313BEFF90EF900F
S11309E0DF90CF90BF90AF909F908F900895505814
S11309F0BB27AA270E940F050C94C2060E94B406C6
S1130A0038F00E94BB0620F039F49F3F19F426F415
S1130A100C94B1060EF4E095E7FB0C948206E92FE2
S1130A200E94D30658F3BA17620773078407950721
S1130A3020F079F4A6F50C940D070EF4E0950B2E36
S1130A40BA2FA02D0B01B90190010C01CA01A0011C
S1130A501124FF27591B99F0593F50F4503E68F177
S1130A601A16F040A22F232F342F4427585FF3CFB8
S1130A70469537952795A795F0405395C9F77EF489
S1130A801F16BA0B620B730B840BBAF09150A1F0D2
S1130A90FF0FBB1F661F771F881FC2F70EC0BA0F58
S1130AA0621F731F841F48F4879577956795B795E0
S1130AB0F7959E3F08F0B0CF9395880F08F09927DB
S1130AC0EE0F9795879508950E94F50690F09F374D
S1130AD048F4911116F40C940E0760E070E080E87D
S1130AE09FE3089526F01B16611D711D811D0C9452
S1130AF088060C94A3060E945E0608F481E008951B
S1130B000E9494050C94C2060E94BB0658F00E94F1
S1130B10B40640F029F45F3F29F00C948206511189
S1130B200C940E070C94B1060E94D30668F3992323
S1130B30B1F3552391F3951B550BBB27AA276217D5
S1130B407307840738F09F5F5F4F220F331F441FE2
S1130B50AA1FA9F335D00E2E3AF0E0E832D0915016
S1130B605040E695001CCAF72BD0FE2F29D0660F03
S1130B70771F881FBB1F261737074807AB07B0E846
S1130B8009F0BB0B802DBF01FF2793585F4F3AF04C
S1130B909E3F510578F00C9482060C940E075F3F3B
S1130BA0E4F3983ED4F3869577956795B795F795D2
S1130BB09F5FC9F7880F911D9695879597F90895BA
S1130BC0E1E0660F771F881FBB1F62177307840756
S1130BD0BA0720F0621B730B840BBA0BEE1F88F765
S1130BE0E09508950E94DB0688F09F5798F0B92F8E
S1130BF09927B751B0F0E1F0660F771F881F991F4E
S1130C001AF0BA95C9F714C0B13091F00E940D07DB
S1130C10B1E008950C940D07672F782F8827B85FEB
S1130C2039F0B93FCCF3869577956795B395D9F7A5
S1130C303EF490958095709561957F4F8F4F9F4FAF
S1130C400895E89409C097FB3EF4909580957095BB
S1130C5061957F4F8F4F9F4F9923A9F0F92F96E904
S1130C60BB279395F695879577956795B795F11179
S1130C70F8CFFAF4BB0F11F460FF1BC06F5F7F4F16
S1130C808F4F9F4F16C0882311F096E911C0772328
S1130C9021F09EE8872F762F05C0662371F096E831
S1130CA0862F70E060E02AF09A95660F771F881F00
S1130CB0DAF7880F9695879597F90895990F0008A4
S1130CC0550FAA0BE0E8FEEF16161706E807F9071A
S1130CD0C0F012161306E407F50798F0621B730BB5
S1130CE0840B950B39F40A2661F0232B242B252B36
S1130CF021F408950A2609F4A140A6958FEF811DD9
S1130D00811D089597F99F6780E870E060E0089579
S1130D10882371F4772321F09850872B762F07C00E
S1130D20662311F499270DC09051862B70E060E082
S1130D302AF09A95660F771F881FDAF7880F969521
S1130D40879597F908959F3F31F0915020F4879546
S1130D5077956795B795880F911D9695879597F91F
S1130D6008959FEF80EC089500240A941616170640
S1130D7018060906089500240A9412161306140688
S1130D8005060895092E0394000C11F4882352F0EB
S1130D90BB0F40F4BF2B11F460FF04C06F5F7F4FA3
S1130DA08F4F9F4F089557FD9058440F551F59F08A
S1130DB05F3F71F04795880F97FB991F61F09F3F44
S1130DC079F087950895121613061406551FF2CF6D
S1130DD04695F1DF08C0161617061806991FF1CFBD
S1130DE0869571056105089408950E94DB06A0F0BC
S1130DF0BEE7B91788F4BB279F3860F41616B11DF7
S1130E00672F782F8827985FF7CF86957795679512
S1130E10B11D93959639C8F30895E894BB276627C6
S10F0E207727CB0197F90895F894FFCFD1
S1130E2C01030200010102010101010100010002A0
S10B0E3C0100010100000100A6
S9030000FC
